:020000040000FA
:10000000020800E4F509F50A751DC3751E50F50ECA
:10001000F51BF51CF519F51A1200B5C281C282C292
:1000200083C284750B0085110C12003A750B0075A4
:100030000C0112003A1200AB80E9E4F51FF520E54F
:100040000D550CF508D37001C392821200A1E50C86
:1000500025E0F50CE50B33F50B0520E520700205D6
:100060001FC39408E51F6480948040D322E4FFFE00
:10007000C3EF951EEE951D50070FBF00010E80F0D7
:100080002275C80475CA5975CB9C75CC5975CD9C21
:10009000220A0FC0F9A4B0999282F88090010D80D5
:1000A00000D28312006DC28302006DD28412006DF3
:1000B000C28402006D1200811200BE0200C975A444
:0D00C0001E75E2402253D9BF2275A8A02270
:100800001200C5787FE4F6D8FD75812002084A02FF
:100810000003E493A3F8E493A34003F68001F208F5
:10082000DFF48029E493A3F85407240CC8C333C42D
:10083000540F4420C8834004F456800146F6DFE498
:10084000800B0102040810204080900091E47E019A
:100850009360BCA3FF543F30E509541FFEE493A30B
:1008600060010ECF54C025E060A840B8E493A3FA1D
:10087000E493A3F8E493A3C8C582C8CAC583CAF0A9
:0F088000A3C8C582C8CAC583CADFE9DEE780BE48
:00000001FF
