:020000040000FA
:10000000020800C2D5EC30E709B2D5E4C39DFDE497
:100010009CFCEE30E715B2D5E4C39FFFE49EFE12D0
:100020000039C3E49DFDE49CFC800312003930D507
:1000300007C3E49FFFE49EFE22BC000BBE0029EF35
:100040008DF084FFADF022E4CCF875F008EF2FFFBF
:10005000EE33FEEC33FCEE9DEC984005FCEE9DFE8D
:100060000FD5F0E9E4CEFD22EDF8F5F0EE8420D2D4
:100070001CFEADF075F008EF2FFFED33FD40079843
:100080005006D5F0F222C398FD0FD5F0EA22E4F530
:100090000AF50BF50AF50BAE0AAF0B7C007D0212D8
:1000A0000003ED64014C7004C2818002D281120011
:1000B000C5050BE50B7002050AC39414E50A6480BC
:1000C000948040D322E4FFFEC3EF9509EE950850DB
:1000D000070FBF00010E80F0221200F7C2812080BE
:1000E0000512008E80F82275A40275E240220208F3
:0A00F000C3500053D9BF220200E7FD
:100800001200F3787FE4F6D8FD75810B02084A02E6
:1008100000D9E493A3F8E493A34003F68001F2081F
:10082000DFF48029E493A3F85407240CC8C333C42D
:10083000540F4420C8834004F456800146F6DFE498
:10084000800B01020408102040809000EEE47E013D
:100850009360BCA3FF543F30E509541FFEE493A30B
:1008600060010ECF54C025E060A840B8E493A3FA1D
:10087000E493A3F8E493A3C8C582C8CAC583CAF0A9
:0F088000A3C8C582C8CAC583CADFE9DEE780BE48
:00000001FF
