:020000040000FA
:1000000002080075C80475CA5975CB9C75CC597522
:10001000CD9C221200031200230200C7120013C25B
:0A0020008180FE75A40275E2402203
:10002B000200B9C2D5EC30E709B2D5E4C39DFDE4BB
:10003B009CFCEE30E715B2D5E4C39FFFE49EFE12A5
:10004B000064C3E49DFDE49CFC800312006430D586
:10005B0007C3E49FFFE49EFE22BC000BBE0029EF0A
:10006B008DF084FFADF022E4CCF875F008EF2FFF94
:10007B00EE33FEEC33FCEE9DEC984005FCEE9DFE62
:10008B000FD5F0E9E4CEFD22EDF8F5F0EE8420D2A9
:10009B001CFEADF075F008EF2FFFED33FD40079818
:1000AB005006D5F0F222C398FD0FD5F0EA22C2CF4D
:1000BB00B281320208C3500053D9BF2275A8A022C7
:100800001200C3787FE4F6D8FD75810902084A0218
:10081000001CE493A3F8E493A34003F68001F208DC
:10082000DFF48029E493A3F85407240CC8C333C42D
:10083000540F4420C8834004F456800146F6DFE498
:10084000800B01020408102040809000BEE47E016D
:100850009360BCA3FF543F30E509541FFEE493A30B
:1008600060010ECF54C025E060A840B8E493A3FA1D
:10087000E493A3F8E493A3C8C582C8CAC583CAF0A9
:0F088000A3C8C582C8CAC583CADFE9DEE780BE48
:00000001FF
